:1000000031C04BC06DC349C048C047C046C045C0A1
:1000100044C043C042C041C040C03FC03EC00403D2
:1000200009041603550053004200740069006E0075
:10003000790053005000490012011001000000082F
:1000400081179F0C0401000200010902190001013F
:100050000080640904000001FF000000070581031F
:1000600008000A0011241FBECFE5D1E0DEBFCDBFDE
:1000700010E0A0E6B0E0ECECF9E002C005900D92D3
:10008000A436B107D9F710E0A4E6B0E001C01D9294
:10009000AB3AB107E1F77DD197C4B2CFFC015091E3
:1000A0006000862F972FDC0194E0619128E030E01A
:1000B00040E880E0742F762309F0C09A052E00C036
:1000C0000000000000000A94D1F7C29A052E00C07B
:1000D0000000000000000A94D1F7880FB1998F5FEB
:1000E000C098C29846952150304021F78D93915089
:1000F000E1F6089580916600909167009C012F5F62
:100100003F4F30936700209366002091680027FFDF
:1001100002C0880F991F20936B0080FF03C02860E6
:1001200020936B00292F269520936C009695879538
:1001300080936D008BE690E06FE670E0AFDF08958E
:10014000EF92FF921F93DF93CF930F92CDB7DEB75D
:10015000182F862F612F792F7B0108C08983CADF72
:1001600090917200F70191937F0189819E2D911BDF
:100170009817A0F30F90CF91DF911F91FF90EF9010
:100180000895DF92EF92FF920F931F93CF93DF9327
:10019000F82EE62E0F2D192F50E6D52E32C0F8017D
:1001A00081918F0180936E00A5DF80916B008D257A
:1001B00080936B00C0E0D0E01DC08BE690E06FE65E
:1001C00070E06CDF8091720090916E00891741F4AD
:1001D00090916400891721F090916500891789F446
:1001E0002091600030E045E0220F331F4A95E1F78F
:1001F000C20FD31F2091690030916A00C217D30744
:10020000E0F2802F8F198E1550F281E0DF91CF91AF
:100210001F910F91FF90EF90DF900895CF93DF93A0
:10022000EC014981442331F49093900080938F0036
:1002300088E069C0EC81F0E0413041F4808188833E
:10024000D0939000C0938F0081E05DC05A8142300E
:1002500011F4508357C00296652F677021E030E09B
:1002600001C0220F6A95EAF7433021F4209580817E
:10027000822304C0443021F48081822B808342C0D9
:10028000453049F450936000B99887B3856287BBC5
:1002900088B3887D04C0463021F480E287BB88BBE8
:1002A00031C0473041F4BE01F9DED0939000C093D5
:1002B0008F0084E028C0483031F4509364008B8173
:1002C000809365001FC08C819D819093670080930F
:1002D0006600493011F480E211C04B3011F480EA1D
:1002E0000DC08A819B8190936A00809369004A3097
:1002F00011F480E403C04C3029F480EC8093680052
:100300008FEF01C080E0DF91CF910895DF92EF92EF
:10031000FF920F931F93CF93DF93C8E0D0E0FF24A9
:1003200060E8E62EDE2CDF0CD1BEC7D1082F192FD6
:1003300089E0043318070CF4FD2CE694219791F71B
:100340008F2D815081BFCF2DD0E0219610C0B5D127
:100350008453994097FF03C0909581959F4F8017D4
:10036000910714F4F1B68C0181B78F5F81BF81B71B
:1003700090E0C817D9075CF7F1BE61B780E090E064
:1003800015D3DF91CF911F910F91FF90EF90DF90E8
:10039000089580E287BB88BB80E090E0FFD28F3F6A
:1003A00009F081BFBC9A84E1E2EBF1EF3197F1F7FC
:1003B00000C000008150C1F7BC982EE088E190E0B9
:1003C0000FB6F894A89581BD0FBE21BD52D1789487
:1003D000A89527D0FDCF1F93162F2091800024FFD2
:1003E00007C02091810038E823272093810003C0B3
:1003F0002AE520938000DC01812F815090E08D5709
:100400009F4FE2E8F0E02D912193E817F907D9F723
:1004100082E890E0612F4DD11C5F109380001F9106
:1004200008951F93CF93DF9360919100635067FD10
:10043000A7C080918E00CCE0D0E0C81BD109CB567C
:10044000DF4F80918D008D3209F088C0683009F04F
:1004500095C083EC809375008AE5809361001092CB
:1004600073008881807631F0CE01D8DE8F3F09F4A9
:1004700064C06AC09A8110927E008981882331F419
:1004800010927F002EE730E082E052C0853019F4F0
:10049000909392004AC0863091F58B81813041F46F
:1004A00088E390E09093900080938F0082E123C0D6
:1004B000823041F48AE490E09093900080938F0022
:1004C00089E119C08330B1F4992341F48EE190E0C1
:1004D0009093900080938F0084E00DC0913051F094
:1004E000923041F482E290E09093900080938F00EC
:1004F00086E101C080E090E49093730025C08830CD
:1005000069F0893019F4909394000FC08A3049F053
:100510008B3059F48BE48093810007C024E930E0EC
:1005200002C02EE730E081E003C02EE730E080E03B
:100530003093900020938F0007C0988197FD8E81A3
:1005400090E89093730007C09F81992321F49E81C6
:10055000981708F4892F8093620010C0809173006F
:1005600087FF0CC0CE010DDE8F3F21F48EE180931A
:10057000610004C0882311F0109262001092910073
:100580008091610084FF5BC0809162008F3F09F41D
:1005900056C0182F893008F018E0811B8093620044
:1005A0008091750098E88927809375001123B1F137
:1005B0008091730087FF08C086E790E0612FC0DD5F
:1005C000182F8930B0F52AC020918F00309190000B
:1005D000412F415086FF0EC050E0EA01C958DF4F5D
:1005E000F901A6E7B0E084918D933196AC17BD0771
:1005F000D1F70CC0D90150E0CA0189589F4FE6E7F6
:10060000F0E06D916193E817F907D9F74F5F5F4FFD
:10061000420F531F5093900040938F0086E790E065
:10062000612F47D01C5F1C3041F08FEF8093620038
:1006300004C08FEF809362001EE11093610084E19B
:1006400096B3987131F48150D9F7109292001092BC
:100650008C0011E0811110E080917400811729F065
:10066000112309F453DE10937400DF91CF911F9191
:100670000895AB9A8BB780628BBF8BE48093810027
:100680008AE5809380000895A82FB92F80E090E03C
:1006900041E050EA609530E009C02D91822797959E
:1006A000879510F084279527305EC8F36F5FA8F315
:1006B0000895EADF8D939D930895A6E088279927F2
:1006C000AA9569F00197E1F3B499FCCFB49BFECFF2
:1006D00081E09927A6B3019611F0A871D9F7089582
:1006E000CF93CFB7CF93C395B49BE9F7B49B0BC01F
:1006F000B49B09C0B49B07C0B49B05C0B49B03C0A6
:10070000B49B01C0D5C00F92DF93C0918E00DD274E
:10071000CB56DF4F012EB49B03C0DF910F90E6CF85
:100720002F930F931F934F932FEF4F6F06B304FB3D
:1007300020F95F933F9350E03BE065C016B301267C
:10074000502954FDC89556B3012704FB25F92F7392
:1007500006B3B1F05027102714FB26F906B2223059
:10076000F0F000C016B3012704FB27F90126502939
:1007700006B22430E8F54F77206816B30000F6CFB4
:1007800050274F7D206206B2102F000000C006B334
:1007900000265029102714FB26F906B2E2CF4F7B22
:1007A00006B3206400C0DACF01265029187106B2C2
:1007B00069F14E7F2160012F16B328C00026502911
:1007C0004D7F06B22260102F29C0012650294B7F91
:1007D00006B22460012F2DC016B301265029477F91
:1007E0002860000006B22EC04F7E06B3206130C0E4
:1007F000422706B3499300265029102706B24FEF2F
:1008000014FB20F9297F16B379F2187159F10126EA
:10081000502906B2012704FB21F9237F06B371F2A8
:10082000002650293150D0F006B2102714FB22F9CF
:10083000277E16B351F201265029012704FB06B288
:1008400023F92F7C49F2000006B3102714FB24F98A
:100850000026502906B22F7939F270CF10E21ABF64
:10086000002719C03B503195C31BD04010E21ABF7E
:100870000881033C09F10B34F9F020918C001981B7
:10088000110F1213EDCF4A81441F093651F10D3279
:1008900011F0013E29F7009393003F915F914F9132
:1008A0001F910F912F91DF910F90CAB7C5FD1BCFFC
:1008B000CF91CFBFCF91189520919300222369F358
:1008C00010919100112379F534307AF13093910031
:1008D00020938D0010918E003BE0311B30938E00F1
:1008E00024C0009191000130F4F40AE54F7049F4FE
:1008F0003091610034FD1AC000936100C5E7D0E07B
:1009000019C03091800034FD11C000938000C1E80F
:10091000D0E010C0052710E000C021C0052710E07E
:10092000C89508BB14C03AE501C032ED032EC0E003
:10093000D0E032E017B31861C49A08B317BB58E18E
:1009400020E84FEF20FF052708BB279517951C3F90
:1009500028F700004552B0F720FF0527279508BB70
:1009600017951C3FB8F629913A9561F7077E1091CB
:100970009200110F08BBC250D04011F010938C00B0
:1009800010E21ABF006117B3177E402F477E54E074
:100990005A95F1F708BB17BB48BB7FCFE199FECF53
:1009A0001FBA8EBBE09A99278DB30895262FE1993F
:1009B000FECF1CBA1FBA8EBB2DBB0FB6F894E29ABD
:0C09C000E19A0FBE01960895F894FFCF55
:0409CC00325AFF009C
:00000001FF
